:060000000A128A11FB2F19
:100F7C000C308312031381008316031301158114A3
:100F8C0001148112811108008316031308108810B4
:100F9C008312031308100A128A11BE270A128A112F
:100FAC000B1DD92FDA2FD62F0B110130F100710840
:100FBC00F0070C3083120313810050307006031DB0
:100FCC00E82FE92FD62F0310081C03140318EF2F5A
:100FDC00F32F831203130814F62F83120313081034
:100FEC00F001D62F0A128A110028F00183010A128F
:040FFC008A11CA2F5D
:08400000FF3FFF3FFF3FFF3FC0
:04400E00F220FF3F5E
:00000001FF
