:1000000000308A00E72800000A108A100A118207CF
:10001000403479342434303419341234023478348E
:1000200000341034F801F901F701FA013208031D18
:100030001C283108031936281030B3000310AF0D07
:10004000B00DF70DFA0D32087A02031D2928310888
:100050007702031C32283108F702031CFA03320826
:10006000FA020314F80DF90DB30B1E280800AA01BB
:100070002A08073C031C5628A91B402807104128C2
:10008000071420102008831687008312A010200870
:100090008316870083128710A0102008831687001C
:1000A000831287140310A90DAA0A3828080024080F
:1000B000B0002308AF00B2010A30B1001220770867
:1000C000A9007A08AA00FA0077080420F800A50021
:1000D0002408B0002308AF00B2016430B100122040
:1000E0007708AB007A08AC00B0007708AF00B20127
:1000F0000A30B10012207908AC007808AB0079080A
:10010000FA0078080420F800A6002408B0002308AC
:10011000AF000330B200E830B10012207708AD0024
:100120007A08AE00B0007708AF00B2016430B100C9
:1001300012207908AE007808AD007908FA00780836
:100140000420F800A7002408B0002308AF00033003
:10015000B200E830B10012207908B0007808AF0092
:100160007908FA0078080420F800A8002508A900FA
:1001700037202608A90037202708A900372028089B
:10018000A900372020112008831687008312071149
:100190002011200883168700831207158A110A127E
:1001A000132923308400831300080319E428063040
:1001B000F800F701F70BDA28F80BD9287B30F700A5
:1001C000F70BE028800BD7288A110A12162903089A
:1001D0001F398300FF30A000831603170908C039B8
:1001E000890003131F129F12003003178800831227
:1001F0008701880189018313003083160313870068
:100200008312A000A201A1012208273C031C1A2985
:10021000031D0E2921080E3C031C1A292208A400E4
:100220002108A30057283230A300D128A10A0319BE
:08023000A20A0429022963005F
:04400E00E22CFF3F62
:00000001FF
;PIC16F887
;CRC=E58B  CREATED="13-Thg3-22 15:19"
