:100000000A128A11FB2F00308A000408840A820732
:100010000034553441345234543420344D346F3428
:10002000643475346C346534203449346E34693446
:100030007434693461346C3469347A3465346434CA
:10004000203461346E346434203461346334743465
:1000500069347634653400345234453444342034C1
:100060004C344534443420342D343E3420344F3421
:100070004E34003452344534443420342D343E342C
:0A00800020344F3446344634003477
:100EC600F000831203130C1E692F6A2F642F70081B
:100ED6009900080083120313981C722F732F752F25
:100EE600181218168C1E782F792F752F1A080800DD
:100EF6008316031307138717333099001815181232
:100F06008312031398178316031398168312031379
:100F160018168316031318138312031318130800E5
:100F2600F200A52F720884000A128A1103200A1201
:100F36008A110A128A1163270A128A110130F100F6
:100F46007108F207720884000A128A1103200A1235
:100F56008A11003A031DB02FB12F952F0800831672
:100F6600031386010A128A117B270A128A1101309D
:100F76000A128A1193270A128A110A128A116D27F8
:100F86000A128A11F300F4017308F5007408F600DA
:100F9600313075067604031DD12FD22FE12F83122F
:100FA6000313861524300A128A1193270A128A110E
:100FB6000A300A128A1163270A128A11303075061E
:100FC6007604031DE72FE82FC02F83120313861123
:100FD60032300A128A1193270A128A110A300A122B
:100FE6008A1163270A128A11C02F0A128A11002851
:0A0FF600F70183010A128A11B22FDD
:08400000FF3FFF3FFF3FFF3FC0
:04400E00D420FF3F7C
:00000001FF
