:1000000000308A00572800000A108A100A1182075F
:10001000403479342434303419341234023478348E
:10002000003410342230840083130008031926287A
:100030000130F800F701F70B1B28F80B1A284A309B
:10004000F700F70B21282428800B18280800A101AD
:100050000030A00083168701FF30831287008316CB
:1000600008148312081853281430A2001220831693
:1000700008148312081853282108093C031CA10105
:1000800021080420A2000030A000831687018312FB
:10009000220887006430A2001220A10A83160814E7
:1000A0008312081C4E282F288A110A127828030868
:1000B0001F398300FF30A000831603170908C039D9
:1000C000890003131F129F12003003178800831248
:1000D000870188018901831300300313A000831670
:1000E000870183128701831687008312A0002728C7
:0400F000772863000A
:04400E00E12CFF3F63
:00000001FF
;PIC16F887
;CRC=87E8  CREATED="22-Thg2-22 17:04"
