:08000000803102288731F02F46
:100C52001630210097000800200030089500080097
:100C6200383021009900220096010800FE0012008F
:100C72001E00FE0B382E003420001508F00070080C
:100C8200F1007108080021001508C03928389500C4
:100C920020009501B0010B110800F0007008031D3F
:100CA200532E542E562E0030572E01300800403459
:100CB2007934243430341934123402347834003420
:100CC200103486316F26863186313126863186315F
:100CD20029268631863144268631080022008C017D
:100CE2008D018E013F3021008C00C0308D00F83024
:100CF2008E0023008E018D0113308C0024008D01A3
:100D02008C012100951722009D010800F601F701D0
:100D1200721C8C2E8D2E912E7408F6077508F73DE5
:100D22000130F435F50D890B922E0130F336F20CB9
:100D3200890B972E72087304031DA02EA12E892EF3
:100D42007708F3007608F2000800F2008030F10024
:100D52007108F400F5017208740586314E26863159
:100D6200F1007108F300730C2200031C0E1003182B
:100D72000E148E108E140310F40C0130F100710861
:100D8200F50708307502031CC72EC82EAC2E0800CA
:100D9200700871040319CE2ECF2EF82EF501F50A34
:100DA200DB2E0130F035F10D890BD32E0130F4002A
:100DB2007408F507F11FDE2EDF2ED22E71087302A2
:100DC200031DE52E70087202031CE82EE92EED2E9B
:100DD2007008F2027108F33B0130F136F00C890B16
:100DE200EE2E0130F502031DF72EF82EDF2E7308CA
:100DF200F1007208F0000800FB01FC01760877049C
:100E02000319042F052F342FFD01FD0A112F013084
:100E1200F635F70D890B092F0130FA007A08FD0724
:100E2200F71F142F152F082F0130FB35FC0D890BEE
:100E3200162F77087902031D202F76087802031CEB
:100E4200232F242F292F7608F8027708F93B7B14E9
:100E52000130F736F60C890B2A2F0130FD02031DF3
:100E6200332F342F152F7C08F7007B08F60008007B
:100E720086316226873186314426873186313D2686
:100E820087312000AD00AE012D08F2002E08F300DC
:100E92003230F4000030F50086318726873173083E
:100EA200803A2000AF0083302F02031D5A2FE93011
:100EB2007202031C5D2F5E2F612F86312D26873132
:100EC20086313D2687312000AD00AE012D08F200AB
:100ED2002E08F3003230F4000030F5008631872608
:100EE200873173082000AB007208AA0087317D2782
:100EF20087313F2F803102280A30F0000030F100A4
:100F020020002B08F3002A08F2008631C926873117
:100F12007008203E8600870101088631A6268731A7
:100F22000A30F6000030F70020002B08F3002A08F0
:100F3200F2006430F0000030F1008631C9268731BA
:100F42007108F9007008F8008631FD2687317608AD
:100F5200203E8600870101088631A62687310A30A5
:100F6200F0000030F1006430F6000030F70020009D
:100F72002B08F9002A08F8008631FD268731770808
:100F8200F3007608F2008631C92687317008203EC8
:100F92008600870101088631A6268731E830F600EF
:100FA2000330F70020002B08F9002A08F8008631E8
:100FB200FD2687317608203E8600870101088631AA
:100FC200A626873122000E110E1541302000AC00FA
:100FD200EE30890BEA2FAC0BEA2F000008005830E4
:100FE20084008630850020308600003087000A3079
:0E0FF200863137268731B00120008731392F34
:020000040001F9
:08000000FF3FFF3FFF3FFF3F00
:04000E00E209FF3FC5
:00000001FF
