:060000000A128A11F32F21
:100E4000FB00752F0130F9007B0A282F0310F90DE4
:100E5000FF3E031D262F790888000330FA009730E3
:100E6000F900F90B312FFA0B312F362F0130F20731
:100E70000318F30A0030F30783120313051D412FF3
:100E8000422F432F7B2FE83072060330031973067D
:100E9000031D4B2F4C2F752FF201F30188010330F6
:100EA000FA009730F900F90B532FFA0B532F582FF4
:100EB0000130F2070318F30A0030F307831203131B
:100EC0008518632F642F212F051D672F682F692F29
:100ED000752FE8307206033003197306031D712F56
:100EE000722F4E2FF201F301212F83120313851C61
:100EF0007A2F7B2F222F0800831603138801831675
:100F00000317880107308316031385008312031328
:100F10008801051C8C2F8D2FAB2F0518902F912F3A
:100F20008D2F0130FC00780A972F0310FC0DFF3E37
:100F3000031D952F7C08FD007D08F7000130FC00A3
:100F40007C08F8077708880004307806031DA92F6D
:100F5000AA2FAB2FF801851CAE2FAF2FC42F8518F9
:100F6000B22FB32FAF2F75080A128A1120270A1249
:100F70008A110130FC007C08F50704307506031D5A
:100F8000C22FC32FC42FF50183120313051DC92FD0
:100F9000CA2F892FE92FB83070060B30031971065C
:100FA000031DD32FD42FDA2FF001F1018801F501B1
:100FB000F801892F0330FD009730FC00FC0BDE2F79
:100FC000FD0BDE2FE32F0130F0070318F10A00308C
:100FD000F107831203130519EE2FEF2FCB2F892F63
:100FE0000A128A110028F001F101F201F301F40163
:100FF000F501F601F701F80183010A128A117C2F2D
:08400000FF3FFF3FFF3FFF3FC0
:04400E00D420FF3F7C
:00000001FF
