:1000000080311C2800000B00403479342434303413
:10001000193412340234783400341034203085001E
:1000200010308400000803191B285230F700F70B2A
:100030001728800B152808005A302100990023004A
:100040008C018D018F0190012200920191010030FD
:1000500065006600670021008F002000A301A20157
:10006000A101A001A308031DE128A208031DE128A6
:10007000A108031DE1282008053C031CE1282008F5
:10008000F7002108F8002208F9002308FA002008E8
:100090000320B00021008C012000300822008C00D9
:1000A0002000A701A601A501A401A708031DD828C7
:1000B000A608031DD828A508031DD8282408093C34
:1000C000031CD8282408F7002508F8002608F900A2
:1000D0002708FA0024080320B00021008D01200029
:1000E000300822008D002000AB01AA01A901A8015F
:1000F000AB08031DCF28AA08031DCF28A908031D9C
:10010000CF282808053C031CCF282808F700290819
:10011000F8002A08F9002B08FA0028080320B0008C
:1001200021008E012000300822008E002000AF0147
:10013000AE01AD01AC01AF08031DC628AE08031D1A
:10014000C628AD08031DC6282C08093C031CC62878
:100150002C08F7002D08F8002E08F9002F08FA00E7
:100160002C080320B00021008F012000300822005D
:100170008F0032302000B0000E200130AC07031891
:10018000AD0A0319AE0A0319AF0A9B280130A8076C
:100190000318A90A0319AA0A0319AB0A782801301F
:1001A000A4070318A50A0319A60A0319A70A5528C4
:1001B0000130A0070318A10A0319A20A0319A30A10
:1001C0003228A301A201A101A001A008031D6029FA
:1001D000A108031D6029A208031D6029A308031DAF
:1001E000602921008C01023022008C002000A70130
:1001F000A601A501A401A408031D5729A508031DF4
:100200005729A608031D5729A708031D57292100B0
:100210008D01403022008D002000AB01AA01A90110
:10022000A801A808031D4E29A908031D4E29AA08E4
:10023000031D4E29AB08031D4E2921008E014030BD
:1002400022008E002000AF01AE01AD01AC01AC0870
:10025000031D4529AD08031D4529AE08031D452989
:10026000AF08031D452921008F01403022008F0077
:1002700032302000B0000E200130AC070318AD0A68
:100280000319AE0A0319AF0A27290130A80703187A
:10029000A90A0319AA0A0319AB0A11290130A407F4
:1002A0000318A50A0319A60A0319A70AFB28013097
:1002B000A0070318A10A0319A20A0319A30AE52833
:0402C0002E28630081
:020000040001F9
:04000E00C439FF1ED4
:00000001FF
;PIC16F1787
;CRC=B3E6  CREATED="11-Thg3-22 21:48"
