:040000008031132810
:100008007E1480318B1E09280A2811280B1D0D2803
:100018000E2811288031492080317E100900803156
:1000280015287E1020008031592822008C018D016E
:100038008E013F3021008C00F0308D00FE308E00A4
:10004800CE3023008E0030308D0017308C00240015
:100058008D018C012100951722009D0108002100C7
:100068001508C03917389500CD3020009500CD30DF
:10007800F5007508F2000B118B169130F300003073
:10008800F40080318820803108000B1172082000AC
:1000980095007008710403195228532858287108CC
:1000A8008A0070080A008031080080316820803199
:1000B8007530F3000030F4008031882080318B17D0
:1000C8000B17652880311328803119208031803141
:1000D8008220803180318D20803180313320803101
:1000E8000800031022000E1C031403187C287F2824
:1000F80022000E14812822000E1008003A30210038
:1001080099002200960108007408F1007308F000B5
:0C011800080016302100970008000800C5
:020000040001F9
:08000000FF3FFF3FFF3FFF3F00
:04000E00E409FF1FE3
:00000001FF
