:1000000002308A00942A000020224110C42AA0292C
:100010004F10CC2A4F274700C422202747244910DD
:10002000C427CE23A023CF240000D327A029412713
:100030002028C8204D1DA01230197500D327A029F3
:1000400041272028C8204D1DA01230197500C72453
:10005000411054294910C420541DA012B23A000086
:100060002730840083130008031943280630F80062
:10007000F701F70B3928F80B38287B30F700F70B1E
:100080003F28800B362808002E0EF039F7000F307D
:10009000080577048800000008140230F700F70B09
:1000A0004F2852280000081008000808F700080E22
:1000B0000F39F80008008316081088100811831201
:1000C00088100F3083160805F03888008312081551
:1000D00000000814000055207808AE000810000049
:1000E000081472287328000055207808AD00081005
:1000F0000F3083160805880083122E0EF700F030AB
:10010000F70577082D04F8007808AD00AD1B6128CD
:100110002B1C88102B1888140000081100000810F0
:100120002C0EAD000F30AD052D08AE0044202C087C
:100130000F39AD00AE00442008002830A3000C3079
:10014000A4000130A5000630A60008108810081190
:100150000F308316080588000810881008110F302A
:100160008312A70030200130A2002208033C031CA8
:10017000C1280330AE0044200530A7003020A20A79
:10018000B5280230AE0044200530A7003020A2017F
:100190002208033C031CD828233022078400831341
:1001A0000008A700AB012708AC005B20A20AC82802
:1001B0008A110A12AB2A280BDE28E1284030A90058
:1001C000E228A90101302702A90729088038AA00DE
:1001D000AB012A08AC005B2008002608073A031987
:1001E000FB280B3A03190029063A03190829023A99
:1001F00003190E2913290130A700A800DB201829B4
:10020000AB010130AC005B200230A7003020182980
:100210000130A7000230A800DB201829AB01103004
:10022000AC005B2018290130AB002608AC005B2035
:1002300008000B08A3008B13831603178C170C14EC
:100240000000000083120313A31B8B17031850290F
:1002500003170C087F390313A30003170D080313BA
:10026000A40003170F080313A5002308A600ED2020
:10027000240803178D000313250803178F000313A9
:100280000B08A6008B13831603178C170C140000A1
:10029000000083120313A61B8B17A20B50296F2992
:1002A00003170C0D0E0D7F390313A30003170D0860
:1002B0000313A40003170F080313A5002308A600C7
:1002C000ED20240803178D000313250803178F0062
:1002D0008D0A03198F0A03100313A20B19290800B2
:1002E0002508F8012402031878292408F700842936
:1002F000F7010830A600A40DF70D250877020318B2
:10030000F700F80DA60B7B29080078082208A40046
:100310006430A50070217708A20078083030031DF2
:100320009829A31C9F29A3199F29231A20309B29B0
:10033000A31123122314F8077808A600ED20220841
:10034000A4000A30A50070217708A2007808303098
:10035000031DB029A319B429231CB429231A203062
:10036000F8077808A600ED203030A2072208A60082
:10037000ED2008000B08A3008B13831603178C17BE
:100380000C140000000083120313A31B8B17031728
:100390000C087F3903190E2A0313A30003170D0855
:1003A0000313A40003170F080313A5002308A600D6
:1003B000ED20240803178D000313250803178F0071
:1003C00003130B08A6008B13831603178C170C144A
:1003D0000000000083120313A61B8B1703170C0DDC
:1003E0000E0D7F3903190E2A0313A30003170D08FE
:1003F0000313A40003170F080313A5002308A60086
:10040000ED20240803178D000313250803178F0020
:100410008D0A03198F0A0313BA290317031308005F
:100420008316061483120618232A1430A7003020DE
:100430008316061483120618232AA00A83160614AC
:100440008312061C1E2A8316861483128618382AE5
:100450001430A70030208316861483128618382A99
:10046000A008031DA003831686148312861C332A5A
:100470000108A10020082102031D7D2A0130A700E8
:100480000230A800DB20153003178D0000308F00EC
:1004900003100D300313A20019212108A20001301E
:1004A000A30085216430A7003020A2018101013022
:1004B000A700A800DB20043003178D0000308F0058
:1004C0000313BA210130A7000230A800DB200C3052
:1004D00003178D0000308F000313BA213230A700BC
:1004E00030200C30A600ED203230A700302001086B
:1004F000013C03197D2AA20A562A0130A7000230C6
:10050000A800DB201E3003178D0000308F00031081
:100510000D300313A20019212108A2000130A3000D
:1005200085218A110A12C62A03081F398300053063
:10053000A000831603170908C039890003131F128E
:100540009F120030031788008312870188018901F8
:10055000831303139D2883160108C73928388100A7
:10056000831281010130A700A800DB202730031788
:100570008D0000308F0003100D300313A2001921ED
:100580002008A2001130A3008521102AB22A63009E
:04400E00E22CFF3F62
:00000001FF
;PIC16F887
;CRC=8476  CREATED="09-Thg3-22 17:40"
