:060000000A128A1110280B
:10000800FE00030EF4000408F5000A08F6007F0855
:10001800F7000A128A1177280A128A111328F801A0
:1000280083010A128A110E290A128A11FB200A1268
:100038008A110A128A11E6200A128A1183120313FE
:100048008C12831603138C160B178B17071387173D
:1000580088018501831203130814081834283828E6
:100068008312031305163B28831203130512051A7E
:100078003E2842288312031385154528831203134B
:1000880085118316031789018801080000308A004A
:100098000408840A820700344734693461346F34B1
:1000A8002034743469346534703420345534413420
:1000B8005234543420346434613420346434753414
:1000C8006F34633420346B3468346F3469342034CB
:1000D800743461346F3400344E3475346D346234A2
:1000E800653472340034831603138C1E7C287D28F3
:1000F8009628831203138C1E8228832896281A08B0
:10010800F3007308F80031307806031D8C288D2819
:10011800962808100512851121300A128A11C72065
:100128000A128A11831203138C127708FF007608CB
:100138008A0075088400740E8300FE0E7E0E090086
:1001480083120313A200BA28220884000A128A1113
:100158004A200A128A110A128A111D210A128A11CA
:10016800013083120313A1002108A207220884008A
:100178000A128A114A200A128A11003A031DC52858
:10018800C628A8280800F200D928720884000A1294
:100198008A114A200A128A110A128A1127210A1280
:1001A8008A110130F1007108F207720884000A12FE
:1001B8008A114A200A128A11003A031DE428E52808
:1001C800C92808000130831603139A009F3099004C
:1001D800181583160317871583160313181283122D
:1001E8000313981783160313181398160800013081
:1001F800831603139A009F30990018158316031766
:1002080087158316031318128312031398171813EC
:10021800181608000A128A1118200A128A110130C9
:100228000A128A11A4200A128A1119290A128A119B
:10023800102883120313A0000C1E23292429202927
:10024800200899000800F000831203130C1E2D29C2
:0A0258002E292829700899000800DB
:08400000FF3FFF3FFF3FFF3FC0
:04400E00D220FF3F7E
:00000001FF
