:1000000080311D2800000B00403479342434303412
:10001000193412340234783400341034203085001E
:1000200009308400000803191B285230F700F70B31
:100030001728800B1528803176285A302100990026
:1000400023008C018D018F0190012200920191010A
:100050000030670021008F002000A401A301A2014D
:10006000A101A408031D8828A308031D8828A2084D
:10007000031D88282108093C031C88282108F70053
:100080002208F8002308F9002408FA0021080320B8
:10009000A90021008E012000290822008E002000E6
:1000A000A801A701A601A501A808031D7F28A7088C
:1000B000031D7F28A608031D7F282508093C031C73
:1000C0007F282508F7002608F8002708F9002808E7
:1000D000FA0025080320A90021008F01200029082B
:1000E00022008F00C8302000A9000E280130A5078B
:1000F0000318A60A0319A70A0319A80A54280130ED
:10010000A1070318A20A0319A30A0319A40A312894
:040110002D28630033
:020000040001F9
:04000E00C439FF1ED4
:00000001FF
;PIC16F1787
;CRC=3BF6  CREATED="10-Thg3-22 19:25"
