:1000000002308A00BC2A0000C4272027C824452AC1
:1000100020224F002D3084008313000803191D286F
:100020000630F800F701F70B1328F80B12287B3085
:10003000F700F70B1928800B10280800340EF03950
:10004000F7000F300805770488000000081402301C
:10005000F700F70B29282C280000081008000808D2
:10006000F700080E0F39F8000800831608108810F2
:100070000811831288100F3083160805F0388800A5
:10008000831208150000081400002F207808B4001F
:100090000810000008144C284D2800002F20780874
:1000A000B30008100F308316080588008312340E41
:1000B000F700F030F70577083304F8007808B3004C
:1000C000B31B3B28311C881031188814000008111C
:1000D00000000810320EB3000F30B3053308B4002F
:1000E0001E2032080F39B300B4001E20080028304B
:1000F000A4000C30A5000130A6000630A7000810AF
:10010000881008110F308316080588000810881021
:1001100008110F308312AD000A200130A30023081C
:10012000033C031C9B280330B4001E200530AD00A7
:100130000A20A30A8F280230B4001E200530AD002B
:100140000A20A3012308033C031CB2282430230700
:10015000840083130008A800B1012808B2003520EC
:10016000A30AA2288A110A12D12A2E0BB828BB286A
:100170004030AF00BC28AF0101302D02AF072F087F
:100180008038B000B1013008B200352008002C08DA
:10019000073A0319D5280B3A0319DA28063A031946
:1001A000E228023A0319E828ED280130AD00AE003C
:1001B000B520F228B1010130B20035200230AD0087
:1001C0000A20F2280130AD000230AE00B520F2283E
:1001D000B1011030B2003520F2280130B1002C08F6
:1001E000B200352008000B08A3008B1383160317F9
:1001F0008C170C140000000083120313A31B8B1731
:1002000003170C087F39031947290313A3000317A9
:100210000D080313A40003170F080313A5002308F8
:10022000AC00C720240803178D000313250803170B
:100230008F0003130B08A6008B13831603178C176C
:100240000C140000000083120313A61B8B17031766
:100250000C0D0E0D7F39031947290313A300031753
:100260000D080313A40003170F080313A5002308A8
:10027000AC00C720240803178D00031325080317BB
:100280008F008D0A03198F0A0313F3280317031332
:100290008A110A12FD2A8E30F7002608F800250878
:1002A000F900FA01F808031D5F297908F800F9013F
:1002B0000830F702F808031D5F29F70167290310CA
:1002C000F81B6629F90DF80DF7035F29F8138A1159
:1002D0000A120C2B250803192F2AB100290803192B
:1002E0002F2AB102031C79297F30B10703182F2A66
:1002F0007F298130B102031C2F2A03192F2A3108CC
:10030000F700F801F901FA01B0012608AF00AF17B4
:100310002708AE002808AD001930B1002C08AD0246
:100320000318A2290130AE020318A229AF02031854
:10033000A229B0020318A229B00AAF0AAE0A2C08FB
:10034000AD07D4292B08AE020318BD290130AF0236
:100350000318BD29B0020318BD29B00AAF0A2B0843
:10036000AE072C08AD07031CD429AE0A031DD429FF
:10037000AF0A031DD429B00AD4292A088038AF0255
:100380000318D3290130B0020318D329B00A2A0870
:100390008038AF072B08AE07031CB129AF0A031D35
:1003A000B129B00AB1297A14B10BD729E229031077
:1003B000AD0DAE0DAF0DB00D0310FA0DF90DF80D2A
:1003C000B20D8E29321CEA290310F80CF90CFA0C34
:1003D000B20CED29F70303192F2AB21B162A0310BA
:1003E000AD0DAE0DAF0DB00D2C08AD020318022AF5
:1003F0000130AE020318022AAF020318022AB0022B
:10040000031C252A2B08AE0203180D2A0130AF0267
:1004100003180D2AB002031C252A2A088038AF02CF
:100420000318162A0130B002031C252AFA0A031DFC
:10043000252AF90A031D252AF80A031D252AF70A89
:1004400003192F2AF80CF90CFA0C2608B1002A0817
:10045000B106B11F2D2AF817332AF813332AF701F2
:10046000F801F901FA018A110A121D2B8E30F700EA
:100470002308F7022408F9002508F800F917F708FF
:1004800003194D2A0310F908031D492AF808031916
:100490004D2AF90CF80CF70B422AA41F542AF8092C
:1004A000F909F80A0319F90A8A110A12262BAB0175
:1004B0000408AA002B10831B2B14240EF038A6006E
:1004C000A607E23EA700323EA90024080F39A7077D
:1004D000A707A907E93EA800A807A807230E0F3918
:1004E000A807A907A80DA90DA909A90D23080F3967
:1004F000A907A60D0730A5000A30A907A803031C09
:100500007D2AA807A703031C812AA707A603031CAB
:10051000852AA607A503031C892A25308400831396
:1005200007302A052A1384072930040203192A17E1
:100530000008F700031DA42A2A1BA42A2A1AB62A97
:10054000AA19A42A2030A72AAA152A123030F707A0
:10055000A4010408A3002410831B24147708AC0012
:10056000C72023088400831324188317840A2A1FB2
:10057000942A8A110A12362B03081F398300831626
:1005800003170908C039890003131F129F12003096
:1005900003178800831287018801890183130313DD
:1005A000772800308316880083121F139F13831649
:1005B0009F1783121F14831603170908C039890077
:1005C00003131F129F120130031788000030F80038
:1005D000831203131F08C33978049F000A30AD004B
:1005E0000A200530AD000130AE00B52004300317FD
:1005F0008D0000308F000313F3289F149F18FE2AEC
:100600001E08FA0083161E088312A3001E08A40009
:10061000A6002308A5004B297A08A8007908A7009E
:100620007808A6007708A500AA30AC00F130AB002E
:100630000230AA008030A9006A297A08A600790849
:10064000A5007808A4007708A300362A7908A2003C
:100650007808A1000830AD000230AE00B5200B30A4
:1006600084002208A4002108A300572A2030AC00EF
:10067000C7202030AC00C7204330AC00C7200B306F
:10068000AD000230AE00B520DF30AC00C7208316CD
:060690000317E62A6300D7
:04400E00E22CFF3F62
:00000001FF
;PIC16F887
;CRC=BAC4  CREATED="02-Thg3-22 08:16"
