:100000000A128A11D82FFF1B0D2883137F1883171C
:100010000008840A0319FF0A080000308A00040857
:10002000840A82070034013400340A340034643412
:100030000034E8340334103427342034203420349E
:100040002034203420342034203420342034203410
:1000500020342034203420342034563449342034A1
:100060005834553420344C3459342034203420341E
:1000700020342034203420342034203420342034E0
:10008000203420342034203420340034543452348A
:1000900055344F344E34473420344434553443348B
:1000A00020345434483441344E34473400342534F9
:0A00B0006334003425347534003445
:1007DC0064008001840A0406031900340406EF2B1C
:1007EC007E088A007F0882000A128A11F6230A12F8
:1007FC008A118000840A04087D0603190034FF0A5C
:10080C000319FE0AFA2B0B34003400340034003484
:10081C00003400340034003400340034003400342C
:10082C00003400340034003400340034003400341C
:10083C00003400340034003400340034003400340C
:10084C0000340034003400340034003400340034FC
:10085C0000340034FD0014307D02031C362C372C80
:10086C00442C642C7D175C2C1430B9003908FD071E
:10087C005C2C5430B9003908FD075C2C7C088312C1
:10088C000313B900BA013A08003A03194E2C5C2C38
:10089C003908003A03195C2C013A0319382C033A35
:1008AC0003193A2C013A03193F2C5C2CFD17F50166
:1008BC007D080A128A11DF240A128A1108007808AE
:1008CC00790403196A2C6B2C9A2CFD01FD0A792CE6
:1008DC0001300310F80DF90DFF3E031D6F2C013094
:1008EC00FC007C08FD07F91F7C2C7D2C6E2C7908F4
:1008FC007B02031D832C78087A02031C862C872C20
:10090C008D2C7808FA027908031CFB03FB020130DA
:10091C000310F90CF80CFF3E031D8E2C0130FD0268
:10092C00031D992C9A2C7D2C7B08F9007A08F80071
:10093C0008000C34123412340C34003400340034FB
:10094C000034003404340E341F340E3404340034B8
:10095C00003404340434043404341F340E340434AA
:10096C0000340A34153411340A340434003400349D
:10097C0000340A341F341F340E3404340034003471
:10098C0000340034003400340034003400340034BB
:10099C0000340034003400340034003400340034AB
:1009AC00003400340034003400340034003400349B
:1009BC000034FA007A08F60004300310F60CFF3EFF
:1009CC00031DE32C7608F7007708F8007A080F3936
:1009DC00F6007608F9007508031DF52CF62CFA2C98
:1009EC00831203130812FD2C8312031308168312AF
:1009FC00031308170808F0397804F6007608FB0092
:100A0C007B08880000008312031308130000831274
:100A1C00031308170808F0397904F6007608FB0070
:100A2C007B088800000083120313081300000A12CD
:100A3C008A1167250A128A110800F501F60170085F
:100A4C00710403192A2D2B2D622DF701F70A392D6C
:100A5C0001300310F00DF10DFF3E031D2F2D013061
:100A6C00F4007408F707F11F3C2D3D2D2E2D01309D
:100A7C000310F50DF60DFF3E031D3E2D710873029C
:100A8C00031D4A2D70087202031C4D2D4E2D552D41
:100A9C007008F2027108031CF303F30275140130A1
:100AAC000310F10CF00CFF3E031D562D0130F70224
:100ABC00031D612D622D3D2D7608F1007508F000A7
:100ACC0008000F30F000700883160313880483129B
:100ADC0003138816081283120313081783120313C7
:100AEC000808F0007008F4007408F00003300310DC
:100AFC00F00DFF3E031D7D2D0310700DF1007108EC
:100B0C00F400831203130813000083120313081755
:100B1C00831203130808F0007008F3000F30F00084
:100B2C007008F30574087304F0007008F40074087E
:100B3C008039F0007008F2008312031308130000D0
:100B4C007208031DAA2DAB2D712D8312031388126D
:100B5C00F030F00070088316031388050800831228
:100B6C000313B9002730FD00F530FC00FC0BBC2D45
:100B7C00FD0BBC2DF030FC007C088316031388059C
:100B8C00081308128812F030FC007C08831203133F
:100B9C008805081388120812831203130817881487
:100BAC00000083120313081300000A128A11672530
:100BBC000A128A11F50128300A128A11DF240A124E
:100BCC008A11F5018312031339080C380A128A11A1
:100BDC00DF240A128A11F50140300A128A11DF242F
:100BEC000A128A1183120313BA01F501F50A3A08A5
:100BFC00903E8400831700080A128A11DF240A121F
:100C0C008A110130FC007C0883120313BA074030B0
:100C1C003A02031C122E132EFB2D080000300A1270
:100C2C008A11B5250A128A1183120313C901FC011A
:100C3C0000300A128A1130240A128A113430FC0056
:100C4C008030FD000A128A1179260A128A11FC01E1
:100C5C00FC0A8312031349080A128A1130240A125F
:100C6C008A11483083120313C6004608B90049089C
:100C7C00C700C8014708BA004808BB0025300A1253
:100C8C008A11F1260A128A112530FC000030FD0071
:100C9C000A128A1179260A128A110230831203135E
:100CAC00C8000430C700B930C600C60B5B2EC70B9A
:100CBC005B2EC80B5B2E622EF50101300A128A11D5
:100CCC00DF240A128A11013083120313C60046086E
:100CDC00C9070A304902031C742E752E1D2E1A2EBC
:100CEC000A128A110028E02E7D08FF007C0884007F
:100CFC000A128A1103200A128A11253A031D872E23
:100D0C00882ECA2E0130FC070318FD0A0030FD079F
:100D1C007D08FF007C0884000A128A1103200A1245
:100D2C008A11D03EB9003908BA00BA1B9E2E9F2EEC
:100D3C00AF2E3A08803A783E0318A52EA62EAF2E79
:100D4C00F501F50A3A080A128A11DF240A128A11EF
:100D5C00DA2EF501F50A25300A128A11DF240A125F
:100D6C008A11F501F50A7D0883120313FF007C0834
:100D7C0084000A128A1103200A128A110A128A119B
:100D8C00DF240A128A11DA2EF501F50A7D08FF001C
:100D9C007C0884000A128A1103200A128A110A1292
:100DAC008A11DF240A128A110130FC070318FD0A8C
:100DBC000030FD077D0883120313FF007C088400BC
:100DCC000A128A1103200A128A11003A031DEF2E0F
:100DDC00F02E7A2E080083120313C4003A30BC00A4
:100DEC003C08C300C12F253045060319FE2EFF2EEB
:100DFC000B2F4508BC00440884003C08831380007A
:100E0C000130BC003C08C407C12FBF01292F430887
:100E1C00840083130008BC003C08C5000230BC00F1
:100E2C003C08C3074508BC00440884003C088313F5
:100E3C0080000130BC003C08C407C12FC030BC008E
:100E4C003C08BF04462F0130B907FF303907840036
:100E5C000A128A110D200A128A11C500BC00BD01AC
:100E6C003D08003A03193B2F182F3C08003A031990
:100E7C00D32F633A03190D2F163A0319242F182F69
:100E8C004308840083130008C000840A0008C100D2
:100E9C000230BC003C08C307C501C50A4508BC00AC
:100EAC003C07013E84000A128A110D200A128A1195
:100EBC00BD000A128A110D200A128A11BE003E08CA
:100ECC004102031D6B2F3D08400203186E2F6F2F3C
:100EDC00702F7A2F0130BC003C08C5070530450641
:100EEC00031D792F7A2F542F4508BC003C08C200F3
:100EFC00B82F0A30F8000030F9004208BC003C075B
:100F0C00013E84000A128A110D200A128A11F00087
:100F1C000A128A110D200A128A11F1004108F300FD
:100F2C004008F2000A128A1123250A128A1171084C
:100F3C00FB007008FA000A128A1165240A128A1141
:100F4C007808303E83120313BD003D08C5004508E8
:100F5C00BC00440884003C08831380000130BC00B2
:100F6C003C08C407FF30BC003C08C207420A031D02
:100F7C00C02FC12F7F2F0130B907FF3039078400F4
:100F8C000A128A110D200A128A11BC003C08C500F5
:100F9C004508031DD22FD32FF92E44088400831348
:100FAC00800108008317D030FD000430FE009F3014
:100FBC00FF00903084000A128A11FA230A128A1157
:100FCC008313C730FD000430FE000930FF00A03051
:100FDC0084000A128A11FA230A128A112030840022
:100FEC0039300A128A11EE230A128A1183010A126D
:040FFC008A11142E14
:08400000FF3FFF3FFF3FFF3FC0
:04400E00F23FFF3F3F
:00000001FF
