:100000000A128A11F32F00308A000408840A82073A
:1000100000342034203420342034323433343A3421
:10002000353439343A3430343034203420340034E8
:100030005034493443343134363446343134353431
:0E0040003034393420344D34433455340034D8
:100D540064008001840A0406031900340406AB2EDF
:100D64008316031388018316031788010A128A1154
:100D74006F270A128A11F701F80110300A128A113A
:100D8400A0270A128A11F701F70A01300A128A1100
:100D94001B270A128A11BD2E0A128A110028F30099
:100DA4007308F10004300310F10CFF3E031DD52E2F
:100DB4007108F2007208F30073080F39F10071082A
:100DC400F300831203130808F03988000808730439
:100DD4008800700C031C08120318081688120817E0
:100DE40008130800F6000730F5007D30F400F40B1A
:100DF400F92EF50BF92EF001F00A76080A128A1181
:100E0400D1260A128A117608F40003300310F40D77
:100E1400FF3E031D082F0310740DF5007508F6003E
:100E2400F001F00A76080A128A11D1260A128A11F0
:100E34000800F900C0300A128A1143270A128A11E5
:100E4400FA01352F7A08790784000A128A110320DF
:100E54000A128A110A128A11F4260A128A1101301E
:100E6400F8007808FA077A08790784000A128A11C8
:100E740003200A128A11003A031D412F422F242F06
:100E84000800F6000730F5007D30F400F40B482F1D
:100E9400F50B482FF00176080A128A11D1260A129E
:100EA4008A117608F40003300310F40DFF3E031D8D
:100EB400562F0310740DF5007508F600C730F400C2
:100EC400632FF40B622F662F672FF00176080A1246
:100ED4008A11D1260A128A11080083120313880189
:100EE4008316031388018312031388171430F80040
:100EF4007930F700F70B7C2FF80B7C2F812F3230E1
:100F04000A128A1143270A128A1128300A128A11F6
:100F140043270A128A110C300A128A1143270A1233
:100F24008A1101300A128A1143270A128A110630E3
:100F34000A128A1143270A128A1108008312031322
:100F4400B600023078020318A82FA92FF22F103010
:100F54007702031CAE2FAF2FB02FF22F78030319A3
:100F6400B42FB52FBB2F80307704B4000030B50008
:100F7400C02FC0307704B4000030B50034080A1222
:100F84008A1143270A128A110730FA007D30F900CA
:100F9400F90BCA2FFA0BCA2F83120313B701E52FDB
:100FA4003708360784000A128A1103200A128A11AC
:100FB4000A128A11F4260A128A110130F9007908FA
:100FC40083120313B7073708360784000A128A11FD
:100FD40003200A128A11003A031DF12FF22FD22F97
:100FE400080083132030840034300A128A11AA26A0
:0C0FF4000A128A1183010A128A11B22E1F
:08400000FF3FFF3FFF3FFF3FC0
:04400E00D420FF3F7C
:00000001FF
