:060000000A128A110C280F
:10000800FE00030EF1000A08F2000A128A111428F1
:100018000A128A110F28F30183010A128A11522841
:100028008B1E172818282D280B1D1B281C282D2847
:100038000130F0007008F3070630831203138100C3
:1000480005307306031D29282A282D280130880623
:10005800F3010B1172088A00710E8300FE0E7E0EEA
:1000680009000A128A1146200A128A1183160313FC
:10007800880183160317890188010B178B170B1149
:100088008B160800063083120313810083160313AE
:100098000115811001148112811108000A128A11B8
:0E00A80035200A128A1157280A128A110C28D4
:08400000FF3FFF3FFF3FFF3FC0
:04400E00D420FF3F7C
:00000001FF
