:1000000000308A00732800000A108A100A11820743
:10001000C034F934A434B034993492348234F8348E
:10002000803490342608F801250203181A28250880
:10003000F7002628F7010830A700A50DF70D2608C0
:1000400077020318F700F80DA70B1D2808002530CC
:1000500084008313000803193A280630F800F701DA
:10006000F70B3028F80B2F287B30F700F70B3628DA
:10007000800B2D280800A1012108C73C031C722811
:100080002408A5000A30A600122077080420A50045
:1000900083168601831225088600831608108312B2
:1000A00008100130A50027208316081083120814B9
:1000B0002408A5000A30A600122078080420A50014
:1000C0008316860183122508860083168810831202
:1000D00088100130A5002720831688108312881409
:1000E000A10A3C28080003081F3983008316031760
:1000F0000908C039890003131F129F12003003172B
:1001000088008312870188018901831300308316D8
:1001100003138600091489140915891588008801BC
:10012000FF30831288000530A0002008A4003B2087
:100130008316091483120918A92820080F3C031DEF
:10014000A328A928A8280130A0072008A4003B2044
:1001500098288316891483128918BA282008063C27
:10016000031CB428BA28B9280230A0022008A40031
:100170003B20A9288316091583120919CA28A3014F
:1001800023082002031CC9282308A4003B20A30A3B
:08019000C028BA28952863007D
:04400E00E22CFF3F62
:00000001FF
;PIC16F887
;CRC=940B  CREATED="29-Thg3-22 21:10"
