:1000000000308A00E72800000A108A100A118207CF
:10001000403479342434303419341234023478348E
:10002000003410341030A900F701FA01A60CA50C19
:10003000031C20282708F7070318FA0A2808FA07DC
:10004000FA0CF70CF90CF80CA90B16288A110A12F5
:100050001829F801F901F701FA013408031D3328C2
:10006000330803194D281030B5000310B10DB20D3F
:10007000F70DFA0D34087A02031D40283308770281
:10008000031C49283308F702031CFA033408FA0258
:100090000314F80DF90DB50B35280800AC012C0838
:1000A000073C031C6D28AB1B572807105828071462
:1000B00024102408831687008312A41024088316B2
:1000C000870083128710A4102408831687008312E8
:1000D00087140310AB0DAC0A4F2808002608B200A5
:1000E0002508B100B4010A30B30029207708AB001D
:1000F0007A08AC00FA0077080420F800A700260868
:10010000B2002508B100B4010A30B30029207908F3
:10011000AE007808AD007908B2007808B100B401EB
:100120000A30B30029207708AD007A08AE00FA0043
:1001300077080420F800A8002608B2002508B100BE
:10014000B4016430B30029207908B0007808AF000A
:100150007908B2007808B100B4010A30B300292050
:100160007708AF007A08B000FA0077080420F8009A
:10017000A9002608B2002508B1000330B400E83019
:10018000B30029207908B2007808B1007908FA0094
:1001900078080420F800AA002708AB004E202808A1
:1001A000AB004E202908AB004E202A08AB004E20A1
:1001B00024112408831687008312071124112408B0
:1001C00083168700831207158A110A122129030852
:1001D0001F398300A101A001A301A201FF30A400E7
:1001E000831603170908C039890003131F129F12D1
:1001F0000030031788008312870188018901831367
:1002000000308316031387008312A40083160108AD
:10021000C73928388100831281010108A301A20097
:100220002308A6002208A500A8013230A700122842
:100230007908A1007808A0002108A6002008A500E0
:100240006E282108023C03182C29FF3A031D2B2994
:0C0250002008E83C031C81010D2963001C
:04400E00E22CFF3F62
:00000001FF
;PIC16F887
;CRC=6EDF  CREATED="13-Thg3-22 15:37"
