:08000000803102288731FC2F3A
:100F0E0016302100970008000B0C890C01390800DF
:100F1E007208200095000800383021009900220048
:100F2E00960108008731B42787318731932787319F
:100F3E008731872787318731A6278731080021001F
:100F4E001508C039173895000C30200095000C306C
:100F5E00F0007008F2000B11080022008C018D01C8
:100F6E008E013F3021008C00F0308D00FE308E005F
:100F7E00CE3023008E0030308D0017308C002400D0
:100F8E008D018C012100951722009D0108008731EB
:100F9E00992787318731A627873120000E10873198
:100FAE008B278731003A0319DD2FDE2FD62F0B1139
:100FBE0087318F2787310130F1007108F3075030E8
:100FCE007306031DEB2FEC2FD62F031020000E1CE3
:100FDE0003140318F32FF62F20000E14F82F200001
:100FEE000E10F301D62F80310228F3012000873135
:020FFE00CE2FF4
:020000040001F9
:08000000FF3FFF3FFF3FFF3F00
:04000E00E209FF3FC5
:00000001FF
