:060000000A128A11FC2F18
:100E5E00F0007008031D342F352F372F0030382F38
:100E6E00013008007608F8007808FA007708F800D4
:100E7E007808FB007B080A128A115B270A128A1176
:100E8E007A080A128A115B270A128A118312031337
:100E9E00081108151A30F900F830F800F80B552F24
:100EAE00F90B552F00000800F2008030F100710898
:100EBE00F400F501720874050A128A112F270A121E
:100ECE008A11F1007108F300730C83120313031CD3
:100EDE00081003180814881088140310F40C01303D
:100EEE00F1007108F50708307502031C7F2F802F63
:100EFE00612F08008316031388018312A001A1013C
:100F0E000030F600F7000A128A1139270A128A11E8
:100F1E008230FD00DD30FC00FC0B932FFD0B932F78
:100F2E00982F013083120313A0000030A100A201FC
:100F3E002108F7002008F6000A128A1139270A1232
:100F4E008A11031083120313200DA000210DA1009E
:100F5E008230FD00DD30FC00FC0BB32FFD0BB32FF8
:100F6E00B82F0130FC007C0883120313A207103047
:100F7E002202031CC32FC42F9F2F0130A00000306C
:100F8E00A100A3012108F7002008F6000A128A1119
:100F9E0039270A128A11831203132108FD00200833
:100FAE00FC000310FC0DFD0D7C08013EA0007D0829
:100FBE000318013E003EA1008230FD00DD30FC0032
:100FCE00FC0BE72FFD0BE72FEC2F0130FC007C080C
:100FDE0083120313A30710302302031CF72FF82FDD
:100FEE00C92F842F0A128A11002883010A128A112E
:020FFE00812F41
:08400000FF3FFF3FFF3FFF3FC0
:04400E00D420FF3F7C
:00000001FF
