:08000000803102288731F12F45
:1008B20016302100970008002000110E890C013922
:1008C20008007708F1007608F00008007708F500C4
:1008D2007608F40008007708F3007608F2000800B2
:1008E2005A30210099002200960108008431A82480
:1008F20084318431712484318431592484318431A6
:10090200C024843108002000911E882C892C842C5C
:10091200FC0123009D1C8E2C8F2C912C1D121D1668
:1009220019080800F900F801791C982C992C9D2CC3
:100932007608F7007708F8070310F60D0310F90C94
:100942007908031DA52CA62C952C780808002200F6
:100952008C018D018E013F3021008C0070308D00A2
:100962008E0123008E0110308D0017308C00240080
:100972008D018C012100951722009D01080008308D
:1009820023009F0090309D0024309E0019309B0070
:100992009C010030F6000030F70084316724843176
:1009A2000030F6000030F70084316C2484310030CE
:1009B200F6000030F700843162248431FC01080023
:1009C20084317724843121308600003087000A3058
:1009D200FA0000301E00FA0BEB2C2000A001172DAC
:1009E20084315D248431003A0319F82CF92CF12C5E
:1009F200843184248431FA0020002008213E8600BC
:100A020087017A0881002008213E86008701233071
:100A12000106031D0D2D0E2D132D0A30FA007A0842
:100A2200A000172D0130FA007A08A0070930200231
:100A3200031C1C2D1D2DF12C4F302106031D222DD0
:100A4200232D8B2D4E302206031D282D292D8B2D73
:100A520030302306031D2E2D2F2D8B2D23302506FE
:100A6200031D342D352D8B2D0A30FA007A08F6003D
:100A7200230884319324843120002407F03EFB00B4
:100A82007B08AB002B03031D472D482D4B2D220065
:100A92000E14A62D02302B06031D502D512D542D60
:100AA20022008E14A62D03302B06031D592D5A2D1C
:100AB2005D2D22000E15A62D04302B06031D622D7E
:100AC200632D662D22008E15A62D05302B06031DE3
:100AD2006B2D6C2D6F2D22000E16A62D06302B06C7
:100AE200031D742D752D782D22008E16A62D07302C
:100AF2002B06031D7D2D7E2D812D22000E17A62D86
:100B020008302B06031D862D872D8A2D22008E1775
:100B1200A62DA62D4F302106031D902D912DA62D19
:100B22004E302206031D962D972DA62D2A30230620
:100B3200031D9C2D9D2DA62D23302406031DA22DC1
:100B4200A32DA62DFF3022008E004F30200021065B
:100B5200031DAC2DAD2D1B2E46302206031DB22DDA
:100B6200B32D1B2E46302306031DB82DB92D1B2E87
:100B720030302406031DBE2DBF2D1B2E233026062A
:100B8200031DC42DC52D1B2E0A30FA007A08F6006B
:100B9200240884319324843120002507F03EFB0091
:100BA2007B08AC002C03031DD72DD82DDB2D220092
:100BB2000E103B2E02302C06031DE02DE12DE42DFC
:100BC20022008E103B2E03302C06031DE92DEA2D48
:100BD200ED2D22000E113B2E04302C06031DF22DAA
:100BE200F32DF62D22008E113B2E05302C06031D0F
:100BF200FB2DFC2DFF2D22000E123B2E06302C0663
:100C0200031D042E052E082E22008E123B2E0730C5
:100C12002C06031D0D2E0E2E112E22000E133B2E1E
:100C220008302C06031D162E172E1A2E22008E13A4
:100C32003B2E3B2E4F302106031D202E212E3B2E14
:100C420046302206031D262E272E3B2E4630230633
:100C5200031D2C2E2D2E3B2E2A302406031D322E50
:100C6200332E3B2E23302506031D382E392E3B2EE4
:100C720022008E01423020002106031D412E422E09
:100C8200A32F4C302206031D472E482EA32F493096
:100C92002306031D4D2E4E2EA32F4E302406031D78
:100CA200532E542EA32F4B302506031D592E5A2E98
:100CB200A32F30302606031D5F2E602EA32F233074
:100CC2002806031D652E662EA32F0A30FA007A0825
:100CD200F600260884319324843120002707F03E51
:100CE200FB007B08AD002D03031D782E792E992E73
:100CF20022000E14A330FA005530890B7E2EFA0B17
:100D02007E2E00002000911E872E882E892EEE2C2A
:100D120022000E10A330FA005530890B8E2EFA0BEA
:100D22008E2E00002000911E972E982E792EEE2CEA
:100D320002302D06031D9E2E9F2EBF2E22008E14E2
:100D4200A330FA005530890BA42EFA0BA42E000012
:100D52002000911EAD2EAE2EAF2EEE2C22008E1054
:100D6200A330FA005530890BB42EFA0BB42E0000D2
:100D72002000911EBD2EBE2E9F2EEE2C03302D067E
:100D8200031DC42EC52EE52E22000E15A330FA0037
:100D92005530890BCA2EFA0BCA2E00002000911E74
:100DA200D32ED42ED52EEE2C22000E11A330FA0013
:100DB2005530890BDA2EFA0BDA2E00002000911E34
:100DC200E32EE42EC52EEE2C04302D06031DEA2E52
:100DD200EB2E0B2F22008E15A330FA005530890B13
:100DE200F02EFA0BF02E00002000911EF92EFA2EA2
:100DF200FB2EEE2C22008E11A330FA005530890B07
:100E0200002FFA0B002F00002000911E092F0A2F3D
:100E1200EB2EEE2C05302D06031D102F112F312F36
:100E220022000E16A330FA005530890B162FFA0B4A
:100E3200162F00002000911E1F2F202F212FEE2C95
:100E420022000E12A330FA005530890B262FFA0B1E
:100E5200262F00002000911E2F2F302F112FEE2C55
:100E620006302D06031D362F372F572F22008E16E0
:100E7200A330FA005530890B3C2FFA0B3C2F0000AF
:100E82002000911E452F462F472FEE2C22008E1256
:100E9200A330FA005530890B4C2FFA0B4C2F00006F
:100EA2002000911E552F562F372FEE2C07302D067E
:100EB200031D5C2F5D2F7D2F22000E17A330FA0039
:100EC2005530890B622FFA0B622F00002000911E11
:100ED2006B2F6C2F6D2FEE2C22000E13A330FA0015
:100EE2005530890B722FFA0B722F00002000911ED1
:100EF2007B2F7C2F5D2FEE2C08302D06031D822FB9
:100F0200832FEE2F22008E17A330FA005530890B63
:100F1200882FFA0B882F00002000911E912F922F0C
:100F2200932FEE2C22008E13A330FA005530890B3A
:100F3200982FFA0B982F00002000911EA12FA22FAC
:100F4200832FEE2C42302106031DA82FA92FEE2C51
:100F52004C302206031DAE2FAF2FEE2C4930230654
:100F6200031DB42FB52FEE2C4E302406031DBA2FCD
:100F7200BB2FEE2C4B302506031DC02FC12FEE2CAC
:100F82002A302606031DC62FC72FEE2C2330270634
:100F9200031DCC2FCD2FEE2CFF3022008E00A3306C
:100FA200FA005530890BD32FFA0BD32F0000200003
:100FB200911EDC2FDD2FDE2FEE2C22008E01A330BE
:100FC200FA005530890BE32FFA0BE32F00002000C3
:100FD200911EEC2FED2FCD2FEE2CEE2C803102281E
:100FE200FC012000AE01AF01B001B101B201B301B9
:0E0FF200B401B501B601B70120008431E12C35
:020000040001F9
:08000000FF3FFF3FFF3FFF3F00
:04000E00E409FF3FC3
:00000001FF
